{
  "contractName": "Zeco",
  "abi": [
    {
      "inputs": [
        {
          "internalType": "bytes32",
          "name": "hash",
          "type": "bytes32"
        }
      ],
      "name": "addDocHash",
      "outputs": [],
      "stateMutability": "nonpayable",
      "type": "function"
    },
    {
      "inputs": [
        {
          "internalType": "bytes32",
          "name": "hash",
          "type": "bytes32"
        }
      ],
      "name": "findDocHash",
      "outputs": [
        {
          "components": [
            {
              "internalType": "uint256",
              "name": "mineTime",
              "type": "uint256"
            },
            {
              "internalType": "uint256",
              "name": "blockNumber",
              "type": "uint256"
            }
          ],
          "internalType": "struct Zeco.Record",
          "name": "",
          "type": "tuple"
        }
      ],
      "stateMutability": "view",
      "type": "function",
      "constant": true
    }
  ],
  "bytecode": "0x608060405234801561001057600080fd5b50610237806100206000396000f3fe608060405234801561001057600080fd5b50600436106100365760003560e01c8063133a48f31461003b5780634cf00d3f14610057575b600080fd5b61005560048036038101906100509190610171565b610087565b005b610071600480360381019061006c9190610171565b6100ce565b60405161007e91906101e6565b60405180910390f35b600060405180604001604052804281526020014381525090508060008084815260200190815260200160002060008201518160000155602082015181600101559050505050565b6100d661011c565b6040518060400160405280600080858152602001908152602001600020600001548152602001600080858152602001908152602001600020600101548152509050919050565b604051806040016040528060008152602001600081525090565b600080fd5b6000819050919050565b61014e8161013b565b811461015957600080fd5b50565b60008135905061016b81610145565b92915050565b60006020828403121561018757610186610136565b5b60006101958482850161015c565b91505092915050565b6000819050919050565b6101b18161019e565b82525050565b6040820160008201516101cd60008501826101a8565b5060208201516101e060208501826101a8565b50505050565b60006040820190506101fb60008301846101b7565b9291505056fea264697066735822122059058bb0e4aa1c3677e72b4dc73a81e5977ae389f4c5ddcc3c9f310220c49f9164736f6c63430008090033",
  "immutableReferences": {},
  "source": "// SPDX-License-Identifier: MIT\npragma solidity >=0.4.22 <0.9.0;\n\ncontract Zeco {\n  struct Record {\n      uint mineTime;\n      uint blockNumber;\n  }\n  mapping (bytes32 => Record) private docHashes;\n  function addDocHash (bytes32 hash) public {\n      Record memory newRecord = Record(block.timestamp, block.number);\n      docHashes[hash] = newRecord;\n  }\n  function findDocHash (bytes32 hash) public view returns(Record memory) {\n      return Record(docHashes[hash].mineTime, docHashes[hash].blockNumber);\n  }\n}",
  "sourcePath": "C:\\Users\\kassi\\OneDrive\\Bureau\\ZECO TEAMS HACKATHON\\publics\\blockchain\\contracts\\Zeco.sol",
  "compiler": {
    "name": "solc",
    "version": "0.8.9+commit.e5eed63a.Emscripten.clang"
  },
  "schemaVersion": "3.4.3",
  "updatedAt": "2021-11-01T14:17:40.762Z",
  "networkType": "ethereum",
  "devdoc": {
    "kind": "dev",
    "methods": {},
    "version": 1
  },
  "userdoc": {
    "kind": "user",
    "methods": {},
    "version": 1
  }
}